:020000040000FA
:0600000083018A011E29A4
:0800080088010B1D1B28B2301A
:1000100095070B11892187218521832121000C1649
:100020002000A30803191828A30303192C201B2858
:10003000A108031D2C202000911D2428741AB42827
:10004000F519D628200091112000921D2B2824009C
:1000500091012000921109002108A30021000C1237
:100060002000080020002608270403197E28741E9B
:100070004F28F41D4028F411240016142000080015
:10008000F41F4628F413751474140800F51C0800B6
:10009000F510F4162400161516194C283E28F51DE7
:1000A0007B28F41D5728F411240016143E28751ED1
:1000B0005E287512F414F301F5160800751B08008C
:1000C000741D7028741104307302031DF516031992
:1000D000F5172400F51A9612F51B961616163E28EB
:1000E000751D0800F41675112400161516197628CA
:1000F0002000A7143E28F61CAD28A528A0308600B5
:10010000003087000C30F300AA301E00F30B852866
:10011000AC308600003087000C30F300AA301E009F
:10012000F30B8F28F401F501F601240094179501D3
:1001300028309500971527309200210091159215CF
:10014000200091119211A6170800F301F401F501A6
:10015000F41574167417F6100800F301F401F50194
:10016000F4157417F5150800F518D028741FBF286A
:100170007413F417FC202400091091002228751C28
:10018000D028043073020318CD280421010824006C
:100190009100F30A951B951322287510F514222857
:1001A000F41E2228F412741274102228741FDF28FF
:1001B00074137516FC202400091491002228F51EE2
:1001C000E628F5127517240096152228751FF028C9
:1001D00075131821240011088100F30A74152228D0
:1001E000F51FF728F513F410761475152228F41E60
:1001F0002228F412F511222820002F0803390B00C1
:1002000030343234343436342000A03086000030AC
:100210008700730886070301873D2F08B000031984
:100220000800043086070301873DB00B1129080040
:100230002000AC3086000030870009292100951786
:10024000951295111514951415152100703099000B
:100250001730970020000130980099137321200077
:1002600000308C00230000308C002100CF308C0047
:10027000200064006430A1000130A30064000B176B
:100280008B168B177E206400322048215E21432983
:10029000F4180800761C080076100330F900AC3022
:1002A0007907840085010030853D0008F8002200B0
:1002B000781C8C1278188C1620000800741808001E
:1002C000F8018C1D78140330F900A0307907840000
:1002D00085010030853D7808000203190800F614F6
:1002E00078088000080020005F30FF002030840084
:1002F00085017E212030FF00A03084008001840A27
:10030000FF0B7E2908002D308A292B308A292930BD
:100310008A29273084000008840300040319080098
:1003200001308002840A0030803B08002C082D0434
:1003300008002A082B0408002808290408002608B9
:10034000270408000530A7294130A7291930F700F4
:10035000F70BA8290800A400240823009100151316
:1003600095131514130820000800A4002408230086
:1003700091002000250823009300151395138B137B
:10038000151555309600AA30960095148B17151147
:080390009518C829200008009F
:0403980000340034F9
:020000040001F9
:08000000010000000D000200E8
:02000E00A42F1D
:02001000FF1ED1
:00000001FF
