:020000040000FA
:0600000083018A011729AB
:0800080088010B1D1B28B2301A
:1000100095070B1180217E217C217A2121000C166D
:100020002000A30803191828A30303192C201B2858
:10003000A108031D2C202000911D2428741AAD282E
:10004000F519CF28200091112000921D2B282400A3
:1000500091012000921109002108A30021000C1237
:1000600020000800741E4A28F41D3B28F4112400C7
:10007000161420000800F41F4128F413751474149A
:100080000800F51C0800F510F416240016151619C2
:1000900047283928F51D7428F41D5228F41124002E
:1000A00016143928751E59287512F414F301F51623
:1000B0000800751B0800741D6B287411043073024E
:1000C000031DF5160319F5172400F51A9612F51BF2
:1000D000961616163928751D0800F4167511240099
:1000E0001615161971283928F61CA6289E28A03046
:1000F0008600003087000C30F300AA308100860AA9
:10010000F30B7E28AC308600003087000C30F30003
:10011000AA308100860AF30B8928F401F501F60163
:10012000240094172830950097152730920021005D
:10013000911592152000911192110800F301F4011C
:10014000F501F41574167417F6100800F301F401A4
:10015000F501F4157417F5150800F518C928741F72
:10016000B8287413F417F5202400091091002228F0
:10017000751CC928043073020318C628FD20010825
:1001800024009100F30A951B951322287510F5148D
:100190002228F41E2228F412741274102228741FCC
:1001A000D82874137516F52024000914910022280C
:1001B000F51EDF28F5127517240096152228751FE5
:1001C000E92875131121240011088100F30A741520
:1001D0002228F51FF028F513F4107614751522283F
:1001E000F41E2228F412F511222820002F080339CA
:1001F0000B0030343234343436342000A0308600E2
:1002000000308700730886070301873D2F08B00080
:1002100003190800043086070301873DB00B0A2943
:1002200008002000AC308600003087000229210041
:100230009517951295111514951415152100703008
:1002400099001730970020000130980099136A2117
:10025000200000308C00230000308C002100CF30C3
:100260008C00200064006430A1000130A300640011
:100270000B178B168B1777206400322041215621F3
:100280003C29F4180800761C08007610F901AC30FF
:100290007907840085010030853D0008F8002200C0
:1002A000781C8C1278188C1620000800741808002E
:1002B000F8018C1D7814F901A030790784008501BC
:1002C0000030853D7808000203190800F61478080C
:1002D0008000080020005F30FF002030840085018E
:1002E00075212030FF00A03084008001840AFF0BBC
:1002F000752908002D3081292B3081292930812949
:10030000273084000008840300040319080001302A
:100310008002840A0030803B08002C082D0408006D
:100320002A082B04080028082904080026082704A6
:10033000080005309E2941309E291930F700F70B3F
:100340009F290800A4002408230091001513951389
:100350001514130820000800A400240823009100AD
:100360002000250823009300151395138B131515F2
:1003700055309600AA30960095148B1715119518D4
:06038000BF292000080067
:04038600003400340B
:020000040001F9
:08000000010000000D000200E8
:02000E00A42F1D
:02001000FF1ED1
:00000001FF
