:020000040000FA
:0600000083018A01AC2817
:0800080088010B1D1B28B2301A
:1000100095070B11122110210E210C2121000C1625
:100020002000A30803191828A303031927201B285D
:10003000A108031D27202000911955202000921DA2
:100040002628240011081516200092110900210805
:10005000A30021000C1220000800A0308600003010
:1000600087000830F400F300AB301E00F40B352895
:10007000A8308600003087000830F400AA301E0047
:10008000F40B3F28240094173630950016141716E9
:1000900097151717971417143030920021009215F6
:1000A0009115200091119211080091112400141D46
:1000B0008628941A6E289612971F61281108151623
:1000C0000800F401A0307407860087010030873DE6
:1000D000010891001516F40A75140800161B8428EF
:1000E00073087402030103187D28A030740786008A
:1000F00087010030873DF40A0108910073087402FB
:10010000031975101516080075100800941A8E282A
:1001100096121108F401F51415160800141AA828EF
:10012000971F8C28141C0800151608307402031839
:10013000AA28A8307407860087010030873DF40A9A
:1001400011088100751508307402031D0800961609
:10015000F510080011080800210095179512951157
:10016000151495141515210070309900173097005B
:100170002000013098009913FC20200000308C00F2
:10018000230000308C002100CF308C002000640060
:100190006430A1000130A30064000B178B168B178D
:1001A00020002D206400D620EC20D228F51808006D
:1001B000751D080075110330F900A8307907840017
:1001C00085010030853D0008F8002200781C8C1263
:1001D00078188C162000080075180800F8018C1D8E
:1001E00078140330F900A0307907840085010030CD
:1001F000853D78088000080020005F30FF00203037
:100200008400850107212030FF00A0308400800198
:10021000840AFF0B072908002D3013292B301329DE
:1002200029301329273084000008840300040319AF
:10023000080001308002840A0030803B08002C084E
:100240002D0408002A082B040800280829040800A7
:10025000260827040800053030294130302919309C
:10026000F700F70B31290800A400240823009100AF
:10027000151395131514130820000800A400240872
:1002800023009100200025082300930015139513E7
:100290008B13151555309600AA30960095148B17C0
:0A02A00015119518512920000800DF
:0402AA0000340034E8
:020000040001F9
:08000000010000000D000200E8
:02000E00A42F1D
:02001000FF1ED1
:00000001FF
