:020000040000FA
:0600000083018A01AD2816
:0800080088010B1D1B28B2301A
:1000100095070B1111210F210D210B2121000C1629
:100020002000A30803191828A30303192F201B2855
:10003000A108031D2F202000911D2428240014193D
:100040005A288528200091112000921D2E28240076
:1000500091012000921124001516200009002108AA
:10006000A30021000C1220000800A0308600003000
:1000700087000830F300AB301E00F30B3C28A8309B
:100080008600003087000830F300AA301E00F30B12
:100090004628240094173630950016141716971525
:1000A0001717303092002100921591152000911100
:1000B00092110800941A6C281108F301A0307307FC
:1000C000860087010030873D01089100951BAA201A
:1000D000F30A741415162228161B8328083073029D
:1000E0000318A728A0307307860087010030873DDA
:1000F00001089100951BAA20F30A08307302031926
:1001000074101516222874102228941A8C281108AD
:10011000F3011516F4142228141AA52808307302C6
:100120000318A728A8307307860087010030873D91
:10013000110881007415F30A951BAA200830730278
:10014000031DA328F41015162228F41022281108E4
:1001500015162228951311080800210095179512ED
:10016000951115149514151521007030990017304C
:1001700097002000013098009913FB2020000030E8
:100180008C00230000308C002100CF308C00200038
:1001900064006430A1000130A30064000B178B16CB
:1001A0008B17200035206400D720EC20D328F418CA
:1001B0000800741D08007411F901A8307907840043
:1001C00085010030853D0008F8002200781C8C1263
:1001D00078188C162000080074180800F8018C1D8F
:1001E0007814F901A0307907840085010030853D3D
:1001F00078088000080020005F30FF002030840075
:10020000850106212030FF00A03084008001840A8F
:10021000FF0B062908002D3012292B301229293016
:100220001229273084000008840300040319080001
:1002300001308002840A0030803B08002C082D0425
:1002400008002A082B0408002808290408002608AA
:100250002704080005302F2941302F291930F700D5
:10026000F70B30290800A40024082300910015137F
:1002700095131514130820000800A4002408230077
:1002800091002000250823009300151395138B136C
:10029000151555309600AA30960095148B17151138
:0802A000951850292000080008
:0402A80000340034EA
:020000040001F9
:08000000010000000D000200E8
:02000E00A42F1D
:02001000FF1ED1
:00000001FF
