:020000040000FA
:0600000083018A01B4280F
:0800080088010B1D1B28B2301A
:1000100095070B111B2119211721152121000C1601
:100020002000A30803191828A303031927201B285D
:10003000A108031D2720200091195C202000921D9B
:100040002628240011081516200092110900210805
:10005000A30021000C12200008002000A608031DA8
:100060000800A0308600003087000830F400F3005C
:10007000AB301E00F40B3928A83086000030870012
:100080000830F400AA301E00F40B4328F401F501F7
:1000900024009417950136309500161417169715FD
:1000A00017179714171430309200210092159115EC
:1000B0002000911192110800A61791112400141D1F
:1000C0008E28941A76289612971F692811081516FB
:1000D0000800F401A0307407860087010030873DD6
:1000E000010891001516F40A75140800161B8C28D7
:1000F00073087402030103188528A0307407860072
:1001000087010030873DF40A0108910073087402EA
:10011000031975101516080075100800941A962812
:1001200096121108F401F51415160800141AB028D7
:10013000971F9428141C0800151608307402031821
:10014000B228A8307407860087010030873DF40A82
:1001500011088100751508307402031D08009616F9
:10016000F510080011080800210095179512951147
:10017000151495141515210070309900173097004B
:1001800020000130980099130521200000308C00D8
:10019000230000308C002100CF308C002000640050
:1001A0006430A1000130A30064000B178B168B177D
:1001B000200031206400DF20F5202D20DA28F518FA
:1001C0000800751D080075110330F900A830790783
:1001D000840085010030853D0008F8002200781C6D
:1001E0008C1278188C162000080075180800F80189
:1001F0008C1D78140330F900A03079078400850144
:100200000030853D78088000080020005F30FF0046
:1002100020308400850110212030FF00A0308400B0
:100220008001840AFF0B102908002D301C292B3077
:100230001C2929301C29273084000008840300046D
:100240000319080001308002840A0030803B080056
:100250002C082D0408002A082B040800280829046B
:1002600008002608270408000530392941303929BB
:100270001930F700F70B3A290800A40024082300DE
:100280009100151395131514130820000800A400FD
:100290002408230091002000250823009300151353
:1002A00095138B13151555309600AA3096009514AA
:0C02B0008B17151195185A292000080022
:0402BC0000340034D6
:020000040001F9
:08000000010000000D000200E8
:02000E00A42F1D
:02001000FF1ED1
:00000001FF
