:020000040000FA
:0600000083018A01A4281F
:0800080088010B1D1B28B2301A
:1000100095070B11082106210421022121000C164D
:100020002000A30803191828A30303192F201B2855
:10003000A108031D2F202000911D2428240014193D
:1000400059288028200091112000921D2E2824007C
:1000500091012000921124001516200009002108AA
:10006000A30021000C1220000800A0308600003000
:1000700087000430F300AA301E00F30B3C28A430A4
:100080008600003087000430F300AA301E00F30B16
:100090004628240094173630950016141716971525
:1000A000303092002100921591152000911192118B
:1000B0000800941A6B281108F301A030730786001A
:1000C00087010030873D01089100951BA120F30AAC
:1000D0007414151622280430730203189E28A030C9
:1000E0007307860087010030873D01089100951B4A
:1000F000A120F30A04307302031974101516222884
:10010000941A87281108F3011516F41422280430D4
:10011000730203189E28A4307307860087010030FD
:10012000873D11088100F30A951BA120043073025A
:10013000031D9C287415F410151622281108151695
:100140002228951311080800210095179512951182
:10015000151495141515210070309900173097006B
:100160002000013098009913F220200000308C000C
:10017000230000308C002100CF308C002000640070
:100180006430A1000130A30064000B178B168B179D
:10019000200035206400CE20E320CA28F41808008F
:1001A000741D08007411F901A430790784008501D9
:1001B0000030853D0008F8002200781C8C12781869
:1001C0008C162000080074180800F8018C1D7814A3
:1001D000F901A0307907840085010030853D780859
:1001E0008000080020005F30FF002030840085017F
:1001F000FD202030FF00A03084008001840AFF0B26
:10020000FD2808002D3009292B300929293009291A
:10021000273084000008840300040319080001301B
:100220008002840A0030803B08002C082D0408005E
:100230002A082B0408002808290408002608270497
:10024000080005302629413026291930F700F70B20
:1002500027290800A40024082300910015139513F2
:100260001514130820000800A4002408230091009E
:100270002000250823009300151395138B131515E3
:1002800055309600AA30960095148B1715119518C5
:06029000472920000800D0
:0402960000340034FC
:020000040001F9
:08000000010000000D000200E8
:02000E00A42F1D
:02001000FF1ED1
:00000001FF
